{
  "contractName": "MyDefi",
  "abi": [
    {
      "inputs": [
        {
          "name": "daiAddress",
          "type": "address"
        }
      ],
      "payable": false,
      "stateMutability": "nonpayable",
      "type": "constructor",
      "signature": "constructor"
    },
    {
      "constant": false,
      "inputs": [
        {
          "name": "recipient",
          "type": "address"
        },
        {
          "name": "amount",
          "type": "uint256"
        }
      ],
      "name": "_transfer",
      "outputs": [],
      "payable": false,
      "stateMutability": "nonpayable",
      "type": "function",
      "signature": "0x4847a79c"
    }
  ],
  "bytecode": "0x608060405234801561001057600080fd5b506040516020806102628339810180604052602081101561003057600080fd5b8101908080519060200190929190505050806000806101000a81548173ffffffffffffffffffffffffffffffffffffffff021916908373ffffffffffffffffffffffffffffffffffffffff160217905550506101d1806100916000396000f3fe608060405260043610610041576000357c0100000000000000000000000000000000000000000000000000000000900463ffffffff1680634847a79c14610046575b600080fd5b34801561005257600080fd5b5061009f6004803603604081101561006957600080fd5b81019080803573ffffffffffffffffffffffffffffffffffffffff169060200190929190803590602001909291905050506100a1565b005b6000809054906101000a900473ffffffffffffffffffffffffffffffffffffffff1673ffffffffffffffffffffffffffffffffffffffff1663a9059cbb83836040518363ffffffff167c0100000000000000000000000000000000000000000000000000000000028152600401808373ffffffffffffffffffffffffffffffffffffffff1673ffffffffffffffffffffffffffffffffffffffff16815260200182815260200192505050602060405180830381600087803b15801561016557600080fd5b505af1158015610179573d6000803e3d6000fd5b505050506040513d602081101561018f57600080fd5b810190808051906020019092919050505050505056fea165627a7a723058204b04a17bc832d18f14e30353aba38ac1acb4bdea7f2cb44eda05bb88b9d8e99b0029",
  "source": "pragma solidity ^0.5.0;\n\n\nimport '@openzeppelin/contracts/token/ERC20/IERC20.sol';\n\n\n\ncontract MyDefi{\n\n\n    IERC20 dai;\n\n    constructor(address daiAddress) public {\n\n        \n        dai = IERC20(daiAddress);\n       \n    }\n\n    function  _transfer(address recipient,uint amount) external{\n\n        //do some stuffs\n        dai.transfer(recipient,amount);\n    }\n}",
  "sourcePath": "/home/shwetha/go/src/github.com/shwethadia/DaiToken/contracts/MyDefi.sol",
  "compiler": {
    "name": "solc",
    "version": "0.5.0+commit.1d4f565a.Emscripten.clang"
  },
  "schemaVersion": "3.0.0",
  "updatedAt": "2021-09-17T14:30:26.776Z",
  "devdoc": {
    "methods": {}
  },
  "userdoc": {
    "methods": {}
  }
}